:100000000C942A000C9434000C9434000C943400AA
:100010000C9434000C9434000C9434000C94340090
:100020000C9434000C9434000C9434000C94340080
:100030000C9434000C9434000C9434000C94340070
:100040000C9434000C9434000C9434000C94340060
:100050000C94340011241FBECFE5D8E0DEBFCDBF25
:100060000E9436000C9493000C9400008FEF8ABB22
:100070008BB380688BBB87EA91E60197F1F700C0EC
:1000800000008BB3806C8BBB87EA91E60197F1F798
:1000900000C000008BB3806E8BBB87EA91E60197AE
:1000A000F1F700C000008BB3806F8BBB87EA91E64D
:1000B0000197F1F700C000008BB38F708BBB87EA0C
:1000C00091E60197F1F700C000008BB381608BBB14
:1000D00087EA91E60197F1F700C000008BB38360D7
:1000E0008BBB87EA91E60197F1F700C000008BB364
:1000F00087608BBB87EA91E60197F1F700C00000AB
:100100008BB38F608BBB87EA91E60197F1F700C054
:1001100000008BB3807F8BBB87EA91E60197F1F7F4
:0A01200000C00000A5CFF894FFCF47
:00000001FF
