S01000005A6164616E6965312E7372656327
S11300000C942A000C9434000C9434000C943400A6
S11300100C9434000C9434000C9434000C9434008C
S11300200C9434000C9434000C9434000C9434007C
S11300300C9434000C9434000C9434000C9434006C
S11300400C9434000C9434000C9434000C9434005C
S11300500C94340011241FBECFE5D8E0DEBFCDBF21
S11300600E948B000C9495000C94000034E060E036
S11300704EC081E090E0032E02C0880F991F0A94BD
S1130080E2F780958BBB89EF90E00197F1F700C010
S1130090000089B38F3F11F488BB089589EF90E085
S11300A00197F1F700C0000029B32F70422F50E0F0
S11300B089B38F7090E04817590741F52D3089F0C6
S11300C028F42730C1F02B3089F01AC02E3021F0EB
S11300D02F30B1F418BA16C06F5F8DEF830F88BB51
S11300E011C06F5F81E0830F88BB0CC06F5F85E038
S11300F0830F88BB07C06F5F89E0830F88BB02C092
S11301008FEF88BB623010F08FEF88BB3F5F3830D1
S113011008F4AFCF089580EF8ABB8FE08BBB8FEFDD
S111012087BB18BA0E943600FDCFF894FFCFBB
S9030000FC
