:100000000C942A000C943C000C943C000C943C0092
:100010000C943C000C943C000C943C000C943C0070
:100020000C943C000C943C000C943C000C943C0060
:100030000C943C000C943C000C943C000C943C0050
:100040000C943C000C943C000C943C000C943C0040
:100050000C943C0011241FBECFE5D8E0DEBFCDBF1D
:1000600020E0A0E6B0E001C01D92A536B207E1F79E
:100070000E9464000C9411010C94000099B398172D
:1000800011F0E1E001C0E0E090E0062E02C095959D
:1000900087950A94E2F780FF15C0F0E0E05AFF4F21
:1000A000808190E002C0959587956A95E2F780FD82
:1000B00008C083EC99E00197F1F700C0000081E0EF
:1000C0000895089580E00895EF92FF921F93CF93D3
:1000D000DF931ABA8FEF87BB84BB11BA8BBB82BB8D
:1000E00018BA15BAE0E6F0E01082118210E0D0E014
:1000F0002CC0ED2EF12CC0E015C06C2F89E30E94BE
:100100003E00882371F0143060F4F701EE59FF4F80
:100110008081880F982F990F990F890F8C0F8083FA
:100120001F5FCF5FC83048F3C0E00DC06C2F80E385
:100130000E943E00882331F0D11102C0C0936400B8
:10014000DF5F10E0CF5FC83088F3D23090F280914B
:1001500064008230C9F028F4882341F0813069F0CE
:1001600030C08330D1F0843029F12BC0E2E6F0E0DA
:1001700090818181890F828324C0E2E6F0E0808152
:100180009181891B82831DC0E2E6F0E0808191812C
:10019000899F802D1124828314C0E2E6F0E08081E3
:1001A0002AE0829FC0011124618170E00E94E90071
:1001B000628307C0E2E6F0E0808181838111809351
:1001C000640080E090E0DF91CF911F91FF90EF906D
:1001D000089597FB072E16F4009407D077FD09D0F9
:1001E0000E94FD0007FC05D03EF4909581959F4F3D
:1001F0000895709561957F4F0895AA1BBB1B51E12F
:1002000007C0AA1FBB1FA617B70710F0A61BB70B86
:10021000881F991F5A95A9F780959095BC01CD012B
:060220000895F894FFCFE1
:00000001FF
