:100000000C942A000C9434000C9434000C943400AA
:100010000C9434000C9434000C9434000C94340090
:100020000C9434000C9434000C9434000C94340080
:100030000C9434000C9434000C9434000C94340070
:100040000C9434000C9434000C9434000C94340060
:100050000C94340011241FBECFE5D8E0DEBFCDBF25
:100060000E9447000C9456000C94000008B601FE54
:10007000FDCF88B7826088BF0895CF93C0E003C0EA
:100080000E943600CF5FC436D8F3CF91089588E23E
:100090008CBF81E08ABB1BBA83B78C6083BF9BB3E4
:1000A00081E089278BBB0E943D00F9CFF894FFCFF8
:00000001FF
