:100000000C942A000C9447000C9447000C94470071
:100010000C9447000C9447000C9447000C94470044
:100020000C9447000C9447000C9447000C94470034
:100030000C9447000C9447000C9447000C94470024
:100040000C9447000C9447000C9447000C94470014
:100050000C94470011241FBECFE5D8E0DEBFCDBF12
:1000600010E0A0E6B0E0E4EEF1E002C005900D92F1
:10007000A837B107D9F720E0A8E7B0E001C01D928A
:10008000A837B207E1F70E94D3000C94F0000C945B
:10009000000098B3986098BB98B3282F207F9F707A
:1000A000922B98BB98B3977F98BB000098B3986049
:1000B00098BB20E1829FC001112498B39F70892BC7
:1000C00088BB88B3877F88BB83ED90E30197F1F706
:1000D00000C00000089588B38B7F88BB81E00E9438
:1000E000490088B3846088BB87E99AE30197F1F7F8
:1000F00000C0000008958CEF87BB18BA88B38B7FCF
:1001000088BB88E20E94490088B3846088BB88B3BA
:10011000846088BB86E00E94490088B3846088BB05
:1001200088B38B7F88BB8CE00E94490088B38460D1
:1001300088BB0E946B00089598B39B7F98BB90E4A6
:10014000899F600D1124862F80680E94490088B322
:10015000846088BB81EE94E00197F1F700C0000055
:1001600008950F931F93CF93DF938C01D62F60E0F8
:1001700080E00E949C00C0E00FC0C03121F460E02C
:1001800081E00E949C00F801EC0FF11DC7FDFA957B
:1001900080810E944900CF5FCD177CF3DF91CF9122
:1001A0001F910F910895CF93DF93CDB7DEB7679777
:1001B0000FB6F894DEBF0FBECDBF80EF8ABB0E94A2
:1001C0007B0087E1E0E6F0E0DE01119601900D9200
:1001D0008A95E1F766E1CE0101960E94B100FFCF5A
:0401E000F894FFCFC1
:1001E4004D2E20506572766F762050727A7963694D
:0801F400736B206E723A0000EB
:00000001FF
