S01200005A616473616E696520322E7372656391
S11300000C942A000C9434000C9434000C943400A6
S11300100C9434000C9434000C9434000C9434008C
S11300200C9434000C9434000C9434000C9434007C
S11300300C9434000C9434000C9434000C9434006C
S11300400C9434000C9434000C9434000C9434005C
S11300500C94340011241FBECFE5D8E0DEBFCDBF21
S11300600E9436000C944D000C94000083B7866007
S113007083BF81E088BB8ABB8BBB83B7887F83BF88
S113008008C082B78BBB8FE493EC0197F1F700C0F3
S1110090000008B600FEF5CFF0CFF894FFCFC5
S9030000FC
