S01200005A6164616E6965315F332E7372656393
S11300000C942A000C943F000C943F000C943F0085
S11300100C943F000C943F000C943F000C943F0060
S11300200C943F000C943F000C943F000C943F0050
S11300300C943F000C943F000C943F000C943F0040
S11300400C943F000C943F000C943F000C943F0030
S11300500C943F0011241FBECFE5D8E0DEBFCDBF16
S113006010E0A0E6B0E0E6E2F2E002C005900D92F6
S1130070A038B107D9F70E940E010C9411010C9419
S1130080000098B3986098BB98B3282F207F9F7086
S1130090922B98BB98B3977F98BB000098B3986055
S11300A098BB20E1829FC001112498B39F70892BD3
S11300B088BB88B3877F88BB83ED90E30197F1F712
S11300C000C00000089588B38B7F88BB81E00E9444
S11300D0410088B3846088BB87E99AE30197F1F70C
S11300E000C0000008958CEF87BB18BA88B38B7FDB
S11300F088BB88E20E94410088B3846088BB88B3CF
S1130100846088BB86E00E94410088B3846088BB19
S113011088B38B7F88BB8CE00E94410088B38460E5
S113012088BB0E946300089598B39B7F98BB90E4BA
S1130130899F600D1124862F80680E94410088B336
S1130140846088BB81EE94E00197F1F700C0000061
S113015008950F931F93CF93DF938C01D62F60E004
S113016080E00E949400C0E00FC0F801EC0FF11D84
S1130170C7FDFA9580810E944100C03121F460E0FE
S113018081E00E949400CF5FCD177CF3DF91CF9183
S11301901F910F910895CF93DF93C82FD62F6FEF40
S11301A0680F0E9494000EC0C13140F060E081E00D
S11301B00E94940084E10E94410003C084E10E94F3
S11301C04100CF5FCD1780F3DF91CF910895CF9396
S11301D0DF93CDB7DEB76F970FB6F894DEBF0FBECF
S11301E0CDBF0E9473008FE1E0E6F0E0DE011196DE
S11301F001900D928A95E1F76EE1CE0101960E947D
S1130200A9006BE080E00E94CB006F960FB6F894D3
S1130210DEBF0FBECDBFDF91CF9108950E94E700EE
S1090220FFCFF894FFCFAC
S113022648656C6C6F20576F726C64202020202008
S11302362121212049206C6F766520796F75000095
S9030000FC
