S01000005A6164616E6965322E7372656326
S11300000C942A000C943C000C943C000C943C008E
S11300100C943C000C943C000C943C000C943C006C
S11300200C943C000C943C000C943E000C943C005A
S11300300C943C000C943C000C943C000C943C004C
S11300400C943C000C943C000C943C000C943C003C
S11300500C943C0011241FBECFE5D8E0DEBFCDBF19
S113006020E0A0E6B0E001C01D92A236B207E1F79D
S11300700E9467000C9479000C9400001F920F9268
S11300800FB60F9211248F939F93809160009091EB
S113009061000A9741F49BB381E089278BBB1092DE
S11300A06100109260009BB384E089278BBB809130
S11300B060009091610001969093610080936000CC
S11300C09F918F910F900FBE0F901F9018958FEFF7
S11300D08ABB83B78D6083BF89B7826089BF81E69D
S11300E08CBF8BB780668BBF8AB780668ABF7894D3
S10900F0FFCFF894FFCFDE
S9030000FC
