:100000000C942A000C943F000C943F000C943F0089
:100010000C943F000C943F000C943F000C943F0064
:100020000C943F000C943F000C943F000C943F0054
:100030000C943F000C943F000C943F000C943F0044
:100040000C943F000C943F000C943F000C943F0034
:100050000C943F0011241FBECFE5D8E0DEBFCDBF1A
:1000600010E0A0E6B0E0E6E0F1E002C005900D92FD
:10007000AA36B107D9F70E9441000C9481000C9474
:100080000000CF93DF93CDB7DEB72A970FB6F89471
:10009000DEBF0FBECDBF8FEF8ABB8FE087BB8AE08C
:1000A000E0E6F0E0DE01119601900D928A95E1F70D
:1000B0008EEF88BB8B818BBB83EF91E00197F1F7CB
:1000C00000C000008DEF88BB89818BBB83EF91E07E
:1000D0000197F1F700C000008BEF88BB89818BBBD3
:1000E00083EF91E00197F1F700C0000087EF88BB34
:1000F0008C818BBB83EF91E00197F1F700C000008A
:06010000D7CFF894FFCFF9
:0A010600039F250D9949411F01F6E2
:00000001FF
