S00E00004C6162345F312E7372656343
S11300000C942A000C9434000C9434000C943400A6
S11300100C9434000C9434000C9434000C9434008C
S11300200C9434000C9434000C9434000C9434007C
S11300300C9434000C9434000C9434000C9434006C
S11300400C9434000C9434000C9434000C9434005C
S11300500C94340011241FBECFE5D8E0DEBFCDBF21
S11300600E944D000C9457000C94000024E012C030
S113007081E090E0022E02C0880F991F0A94E2F7F3
S1130080809588BB89EF90E00197F1F700C00000EC
S113009086B32F5F283060F308958FEF8ABB8FE01B
S11300A08BBB90EF97BB88BB0E943600FDCFF894C2
S10500B0FFCF7C
S9030000FC
