S01000005A6164616E6965342E7372656324
S11300000C942A000C9434000C9434000C943400A6
S11300100C9434000C9434000C9434000C9434008C
S11300200C9434000C9434000C9434000C9434007C
S11300300C9434000C9434000C9434000C9434006C
S11300400C9434000C9434000C9434000C9434005C
S11300500C94340011241FBECFE5D8E0DEBFCDBF21
S11300600E9436000C9493000C9400008FEF8ABB1E
S11300708BB380618BBB87EA91E60197F1F700C0EF
S113008000008BB380638BBB87EA91E60197F1F79D
S113009000C000008BB380678BBB87EA91E60197B1
S11300A0F1F700C000008BB3806F8BBB87EA91E649
S11300B00197F1F700C000008BB38F708BBB87EA08
S11300C091E60197F1F700C000008BB388608BBB09
S11300D087EA91E60197F1F700C000008BB38C60CA
S11300E08BBB87EA91E60197F1F700C000008BB360
S11300F08E608BBB87EA91E60197F1F700C00000A0
S11301008BB38F608BBB87EA91E60197F1F700C050
S113011000008BB3807F8BBB87EA91E60197F1F7F0
S10D012000C00000A5CFF894FFCF43
S9030000FC
