:100000000C942A000C9434000C9434000C943400AA
:100010000C9434000C9434000C9434000C94340090
:100020000C9434000C9434000C9434000C94340080
:100030000C9434000C9434000C9434000C94340070
:100040000C9434000C9434000C9434000C94340060
:100050000C94340011241FBECFE5D8E0DEBFCDBF25
:100060000E9436000C9471010C9400008FEF8ABB43
:100070008BB3806C8BBB2FE986E891E021508040E8
:100080009040E1F700C000008BB38F778BBB2FE966
:1000900086E891E0215080409040E1F700C00000E8
:1000A0008BB380668BBB2FE986E891E021508040BE
:1000B0009040E1F700C000008BB38F7B8BBB2FE932
:1000C00086E891E0215080409040E1F700C00000B8
:1000D0008BB380638BBB2FE986E891E02150804091
:1000E0009040E1F700C000008BB38F7D8BBB2FE900
:1000F00086E891E0215080409040E1F700C0000088
:100100008BB388618BBB2FE986E891E0215080405A
:100110009040E1F700C000008BB38F7E8BBB2FE9CE
:1001200086E891E0215080409040E1F700C0000057
:100130008BB38C608BBB2FE986E891E02150804027
:100140009040E1F700C000008BB3877F8BBB2FE9A5
:1001500086E891E0215080409040E1F700C0000027
:100160008BB386608BBB2FE986E891E021508040FD
:100170009040E1F700C000008BB38B7F8BBB2FE971
:1001800086E891E0215080409040E1F700C00000F7
:100190008BB383608BBB2FE986E891E021508040D0
:1001A0009040E1F700C000008BB38E7F8BBB2FE344
:1001B0008DE093E0215080409040E1F700C00000C6
:1001C0008BB386608BBB2FE38DE093E021508040A2
:1001D0009040E1F700C000008BB38D7F8BBB2FE315
:1001E0008DE093E0215080409040E1F700C0000096
:1001F0008BB38C608BBB2FE38DE093E0215080406C
:100200009040E1F700C000008BB38B7F8BBB2FE3E6
:100210008DE093E0215080409040E1F700C0000065
:100220008BB388618BBB2FE38DE093E0215080403E
:100230009040E1F700C000008BB3877F8BBB2FE3BA
:100240008DE093E0215080409040E1F700C0000035
:100250008BB380638BBB2FE38DE093E02150804014
:100260009040E1F700C000008BB38F7E8BBB2FE383
:100270008DE093E0215080409040E1F700C0000005
:100280008BB380668BBB2FE38DE093E021508040E1
:100290009040E1F700C000008BB38F7D8BBB2FE354
:1002A0008DE093E0215080409040E1F700C00000D5
:1002B0008BB3806C8BBB2FE38DE093E021508040AB
:1002C0009040E1F700C000008BB38F7B8BBB2FE326
:1002D0008DE093E0215080409040E1F700C00000A5
:0602E000C7CEF894FFCF29
:00000001FF
