:100000000C942A000C9434000C9434000C943400AA
:100010000C9434000C9434000C9434000C94340090
:100020000C9434000C9434000C9434000C94340080
:100030000C9434000C9434000C9434000C94340070
:100040000C9434000C9434000C9434000C94340060
:100050000C94340011241FBECFE5D8E0DEBFCDBF25
:100060000E9436000C9484000C9400008FEF8ABB31
:100070008BB380688BBB2FE38DE093E021508040F1
:100080009040E1F700C000008BB3806C8BBB2FE386
:100090008DE093E0215080409040E1F700C00000E7
:1000A0008BB3806E8BBB2FE38DE093E021508040BB
:1000B0009040E1F700C000008BB3806F8BBB2FE353
:1000C0008DE093E0215080409040E1F700C00000B7
:1000D0008BB3807E8BBB2FE38DE093E0215080407B
:1000E0009040E1F700C000008BB3807C8BBB2FE316
:1000F0008DE093E0215080409040E1F700C0000087
:0C0100008BB380788BBBB4CFF894FFCF9A
:00000001FF
